:040000000C942C0030
:14005400B89E3B43CFE5D4E0CDBFDEBFCE51D0400AEA088385
:140068000024E0E6F0E010E0E036F10711F00192FBCF0083EB
:14007C00E8E5F0E0A0E6B0E010E000E00BBFE835F10721F0FD
:14009000C89531960D92F9CF0E946C00FFCFAA924A93AA240E
:1400A40006C041E001C043954423E9F7A394A016C0F3499107
:1400B800A99008954A935A934427552703C000004F5F5F4F8E
:1400CC0040175107D0F35991499108950E94F70002E30E942D
:1400E0004F000E94B50004EF0E944F000E948B013AC000E575
:1400F4000E944F000BE30E94C9000E9403021801290104E5DB
:1401080010E00E94BB013A932A931A930A93810192010E940A
:14011C002E020E94CF0158010DE30E94C9000E9403021801B9
:14013000290104E510E00E94BB013A932A931A930A93810104
:1401440092010E942E020E94CF01A8010635E0E01E0724F4EF
:1401580001E30E94960103C000E30E949601C5CF089522271D
:14016C000BE60E94000121E009E10E94000126E00AE10E94CA
:14018000000128E10BE10E94000121E00CE10C9400010E94A1
:14019400A401402F042F0E943D01C02EDD24042F0F5F0E94FE
:1401A8003D01A02EBB248601102F00270A291B290C94AB01A8
:1401BC0082E08BB922242AB886E880BD8CE089B920BC88E9BB
:1401D0008AB980E88FBF8898899A08955D9BFECF0CB95E9BBF
:1401E400FECF8BB186608BB90895222426BE8FE080B921B88C
:1401F80022B884E086BF0895AA92CA92A22EC02E84EA86BFCA
:14020C0026B627FEFDCF81B1887F883011F001E02BC080EDE6
:1402200083B984E886BF26B627FEFDCF81B1887F883111F01D
:1402340001E01EC0C3B884E886BF26B627FEFDCF81B1887FC5
:14024800883211F001E012C0A3B884E886BF26B627FEFDCF5B
:14025C0081B1887F883211F001E006C084E986BF0AE00E94B5
:140270004F000027C990A9900895AA9284EA86BF26B627FEE5
:14028400FDCF81B1887F883011F001E040C080ED83B984E8B2
:1402980086BF26B627FEFDCF81B1887F883111F001E033C079
:1402AC0003B984E886BF26B627FEFDCF81B1887F883211F010
:1402C00001E027C084EA86BF26B627FEFDCF81B1887F8031F8
:1402D40011F001E01CC081ED83B984E886BF26B627FEFDCF30
:1402E80081B1887F803411F001E00FC084E886BF26B627FEB2
:1402FC00FDCF81B1887F883511F001E004C0A3B084E986BF81
:140310000A2DA990089522242AB882E08BB986E880BD8CE0E7
:1403240089B988E98AB908955D9BFECF0CB908955F9BFECF44
:140338000CB108950DE0F6DF0AE0F4CF00E2F2CF5A934A937B
:14034C00DA92CA92BA92AA920895A990B990C990D990499192
:140360005991089500951095209530950F5F1F4F2F4F3F4F66
:140374000895EA93FA930A92E02FF12FC895002D3196C89555
:14038800102D3196C895202D3196C895302D0990F991E99195
:14039C0008954A925A926A928A930E94CF0211F15520E2F013
:1403B0008FE14816C0F487E14816D1F058F4419489EE481A36
:1403C40005C035952795179507954A94D1F70EC087E1481A54
:1403D800000F111F221F331F4A94D1F705C03FE7232F132F1A
:1403EC00032F04C0662011F00E94B201899169905990499056
:140400000895689401C0E8942227332746F017FD209517FD5C
:14041400309503C0689401C0E8944A925A926A928A9387E1CA
:14042800482E5524662436F0332322F40E94B20180E8682E62
:14043C000E94E80289916990599049900895FA93EA93EA8139
:14045000FB8127D0E991F99122960895FA93EA93EC2FFD2F7B
:1404640032961DD0E991F99124960895FA93EA93EA81FB8183
:1404780014D0E991F991398328831A930A930895FA93EA9330
:14048C00EC2FFD2F329607D0E991F9913B832A8319830883E0
:1404A00008950A921A922A923A920E942D033A932A931A93D2
:1404B4000A9300811181228133810E94CF0209F457C0E62C94
:1404C800D52CC42CB32EA22E912E802E099119912991399149
:1404DC000E94CF02A1F16E244C185D0880E8481653060CF091
:1404F00033C081E848168FEF58060CF436C080E23324232E62
:14050400122E012E302F2227112700272694179407943795A1
:140518002795000F111F221F331F001C111C221C331C28F053
:14052C00081819082A083B0804C0080C191C2A1C3B1C0AF061
:1405400001608A9551F70E94E8020E943C0339902990199047
:14055400099008950FEF102F2FE73FE7662099F30E94B2017D
:14056800F0CF0027102F202F302FEBCF09911991299139912A
:14057C00EDCF0FD029F0662011F00E94B201989408950023EF
:1405900029F4112319F4222309F433230895F7DF99F08A9348
:1405A400632E80E86822220F331F432E8FE7481A55248827CC
:1405B800580A269530E8232B3327899198940895442455248E
:1405CC0066240895DEDF09F40895AA93BA93D2019A938A93F6
:1405E0008EE790E0332349F03695279517950795A817B90745
:1405F400CCF41196F5CF8095909501962223BAF0000F111FC9
:14060800221FA817B90714F01197F6CF0027112722273327AB
:14061C00899199912D01B991A991089533270FEF102F2FE78A
:14063000322F899199912D0102C0AA93BA93A7DF49F0D20105
:14064400A158BF4F2D01342D220F369527953629B991A99171
:1406580008954A925A926A927A928A929A92AA92BA92CA92F5
:14066C00DA92EA92FA928A939A93089599918991F990E990D9
:14068000D990C990B990A9909990899079906990599049901C
:020694000895C7
:00000001FF
